:1000000010C02AC029C028C027C026C025C024C0CF
:1000100023C022C021C020C01FC012C11DC0D6C134
:10002000EAC111241FBECFE5D1E0DEBFCDBF10E095
:10003000A0E6B0E0ECE1F5E002C005900D92A43638
:10004000B107D9F710E0A4E6B0E001C01D92A73ACD
:10005000B107E1F746D260C2D3CF379A08953798F7
:100060000895FBDF8091740080937500369A08959F
:10007000809174002091630030E0A90140715070BC
:1000800080FF1BC0C9018072907023FF0BC0411517
:10009000510521F0009761F58CEA25C0009741F5E4
:1000A0008CE221C04115510521F0009709F582E845
:1000B0001AC00097E9F482E016C0C90180729070FE
:1000C00023FF0BC04115510521F0009789F488E802
:1000D0000AC0009769F488E006C04115510529F06F
:1000E000009731F480E887B90895009709F417B8AC
:1000F0000895809174009091620090FD8C5F81FF63
:1001000002C0DB9A01C0DB9882FF02C0DF9A01C007
:10011000DF98AEDF0895809174008F5F8093740044
:10012000E8DF08959CDF109278001092770010921B
:1001300076001092750010927400DBDF0895F2DFF4
:1001400090DF08958091630087708295807F815051
:1001500080936100E7DF08957894F4DF87B3887FA8
:1001600087BB88B3876088BB8FE19EE40197F1F776
:1001700000C0000096B3986F909580916200892B23
:1001800080936200D39AD79ADB98DF98DFD0DB9A0E
:100190008FEF90E7A2E081509040A040E1F700C0CF
:1001A0000000DB9886B18D6086B93198089587B9D3
:1001B0000895CF93C0E019C0EFD087FF08C0982FF3
:1001C0009F709093600086FF10C0C1E00EC0DF9A60
:1001D0002FEF30E742E0215030404040E1F700C0CF
:1001E0000000DF9880936300ADDFE7D0882321F71C
:1001F000CC2339F08FE097E20197F1F700C00000BF
:100200009EDFCF9108951F93CF93DF9396D0C4E6DE
:10021000D0E018E0899199916091610070E068D117
:10022000862FAAD01150B1F780E0A6D080E0A4D0EC
:1002300080E0A2D080E0A0D0DF91CF911F910895FF
:100240001F920F920FB60F9211242F933F934F934B
:100250005F936F937F938F939F93AF93BF93CF934E
:10026000DF93EF93FF9340917800809161004817EE
:10027000E1F5C0917500D0E08091620080FF03C07D
:100280002497C770D070CE0195958795C170D070B6
:10029000CC0FDD1FCC0FDD1FC82BD92B3CDF8FE827
:1002A00091E00197F1F700C0000084B195B1CC0F47
:1002B000DD1FCC59DF4F392F20E090E0822B932BAC
:1002C0002091760030917700820F931F9983888365
:1002D000109278001092770010927600809174004E
:1002E0008830B9F41FDF8FDF15C024B135B1932FEB
:1002F00080E030E0282B392B8091760090917700B8
:10030000820F931F90937700809376004F5F409306
:100310007800A7DEFF91EF91DF91CF91BF91AF9170
:100320009F918F917F916F915F914F913F912F910D
:100330000F900FBE0F901F90189510927B00109297
:100340007C001092790010927A000895CF93DF9389
:100350000F92CDB7DEB78983F0DF898180937E006D
:10036000DC9ADE9AD49AD69888EA8DB980EF8EB955
:100370000F90DF91CF91089590917A009F5F9F71C8
:10038000209179009217E1F3E92FF0E0E158FF4F57
:10039000808390937A00089580917B0090917C00F7
:1003A0009817E1F3E0917B00EF5FE770E0937B004B
:1003B000F0E0E156FF4F8081089590917B002091FD
:1003C0007C0081E0291709F480E008951F920F92C4
:1003D0000FB60F9211248F938EB110927D00D69894
:1003E00089B388EF8DB980EF8EB98F910F900FBED2
:1003F0000F901F9018951F920F920FB60F92112415
:100400008F939F93EF93FF9380917D00823009F447
:100410003FC0833030F4882361F0813009F058C048
:100420001CC08430D9F18430A8F0853009F050C068
:100430003BC08FB1882351F08FB18695803131F068
:100440008FB1869590917E008917F9F4789B39C019
:1004500081E038C08FB18823C1F4809179009091F8
:100460007A00981791F0809179008F5F8F71809357
:100470007900E0917900F0E0E158FF4F80818FB979
:1004800082E080937D00D69A0DC088EA8DB90AC0BB
:1004900083E080937D00D6981FB818C085E08093D4
:1004A0007D00D69880E713C09FB180917C008F5F5C
:1004B000877080937C00E0917C00F0E0E156FF4F74
:1004C000908384E080937D001FB8D69A8EE78EB922
:1004D000FF91EF919F918F910F900FBE0F901F9002
:1004E00018953ADEBEDD69DF8823E9F362DEFBCFD3
:1004F000AA1BBB1B51E107C0AA1FBB1FA617B7074A
:1005000010F0A61BB70B881F991F5A95A9F7809565
:0C0510009095BC01CD010895F894FFCF38
:04051C000110300298
:00000001FF
